:020000040800F2
:10000000C83B002045010008596F0008690100083D
:10001000556F00087D0D0008218F000800000000CA
:100020000000000000000000000000000183000844
:100030001512000800000000A5730008898400085C
:100040005F0100085F0100085F0100085F01000810
:100050005F0100085F0100085F0100085F01000800
:100060005F0100085F0100085F0100085F010008F0
:100070005F0100085F010008FD0D00080D0E00087B
:100080005F0100085F0100085D0800085F010008CB
:100090005F0100085F0100085F0100085F010008C0
:1000A0003D8500084D8500085F0100085F010008DC
:1000B0005F0100085F0100085F0100085F010008A0
:1000C0005F0100085F0100085F0100085F01000890
:1000D000398100085F010008118F00085F010008E6
:1000E0005F0100085F0100085F0100085F01000870
:1000F0005F0100085F0100085F0100085F01000860
:100100005F0100085F0100085F0100085F0100084F
:100110005F0100085F0100085F0100085F0100083F
:100120005F0100085F0100085F0100085F0100082F
:10013000DFF80CD000F06EFB0048004755A5000822
:10014000C83B00200648804706480047FEE7FEE718
:10015000FEE7FEE7FEE7FEE7FEE7FEE7FEE7FEE777
:1001600029850008310100087046694609F04EFBF8
:10017000FFF7FEFF2DE9F05F0546002092469B4603
:1001800088460646814640241BE0284641464746AD
:10019000224600F029F953465A46C01A914110D31D
:1001A00011461846224600F010F92D1A67EB010897
:1001B0004F4622460120002100F007F917EB000905
:1001C0004E41201EA4F10104DFDC484631462A4698
:1001D0004346BDE8F09F40EA01039B0703D009E0D6
:1001E00008C9121F08C0042AFAD203E011F8013B23
:1001F00000F8013B521EF9D27047D2B201E000F87C
:10020000012B491EFBD270470022F6E710B51346BA
:100210000A4604461946FFF7F0FF204610BD10B508
:10022000044604E00B7800F8013B03B1491C521E60
:10023000F8D2204610BD034611F8012B00F8012B1F
:10024000002AF9D1184670472DE9F04D81EA0304E0
:1002500004F0004B21F0004514464FF0000A23F053
:10026000004150EA050220D054EA01021DD0C5F336
:100270000A570246C5F31303C1F31300C1F30A562C
:1002800040F4801543F48013A7EB0608101BD646F4
:1002900008F2FD3873EB050002D308F1010801E014
:1002A00092185B41B8F1000F03DA00200146BDE867
:1002B000F08D00204FF48011064684460EE0171B97
:1002C00073EB050705D3121B63EB050306434CEAEA
:1002D000010C49084FEA300092185B4150EA0107CF
:1002E000EDD152EA030012D082EA040083EA05014C
:1002F000084305D0101BAB4106D20122002306E0C3
:1003000000224FF0004302E06FF0010253101AEB9D
:1003100006004CEB085110EB0A0041EB0B01BDE865
:10032000F04D00F0D1B80EB540F2334102910021FA
:10033000CDE900110A460B4600F0D5F803B000BD28
:1003400000F0004230F000400AD0C10D01F56071AC
:10035000C0F3160042EA0151C2084007114370473A
:1003600000200146704701F0004330B421F0004105
:1003700050EA010206D00A0DA2F56072C1F3130122
:10038000002A02DC30BC00207047440F44EAC1045C
:10039000C100E01830BC00EBC25000F035B830B5F9
:1003A0000B46014600202022012409E021FA02F533
:1003B0009D4205D303FA02F5491B04FA02F52844CD
:1003C000151EA2F10102F1DC30BD202A04DB203A27
:1003D00000FA02F1002070479140C2F1200320FA98
:1003E00003F3194390407047202A04DB203A21FA96
:1003F00002F00021704721FA02F3D040C2F120023E
:1004000091400843194670470029A8BF7047401C17
:10041000490008BF20F00100704710B4B0FA80FC1A
:1004200000FA0CF050EA010404BF10BC704749B157
:10043000CCF1200421FA04F411FA0CF118BF0121C7
:1004400021430843A3EB0C01CB1D4FEA00614FEAA7
:10045000102042BF002010BC704700EBC350104476
:100460000029A4BF10BC7047401C490008BF20F001
:10047000010010BC7047F0B400F0004221F00041D0
:1004800020F00040CE0DC30DC1F3160141F4000170
:10049000C0F316004C42154640F40000761E09E0F9
:1004A00010EB440002D582F0004240428842F7D867
:1004B00040005B1EB342F9DA18B1F0BC0021FFF72F
:1004C000ACBF2846F0BC704710B5141E73F1000491
:1004D00008DA401C41F1000192185B411A4301D136
:1004E00020F0010010BD2DE9F04D92469B4611B160
:1004F000B1FA81F202E0B0FA80F220329046FFF7C2
:1005000064FF04460F4640EA0A0041EA0B015346E5
:100510005A46084313D0114653EA010019D0C8F1D6
:1005200040025046FFF760FF05460E4650465946CA
:100530004246FFF74AFF084305D0012004E0204669
:100540003946BDE8F08D0020054346EAE0762C43AD
:1005500037430A986305E40AA0EB08000022FD0A6D
:1005600044EA47540A3002D500200146E9E7010574
:1005700010196941DDE9084500196941BDE8F04DF0
:10058000A2E72DE9FE4F804681EA0300C00F0C462A
:10059000009021F0004123F00045B8EB0200A94192
:1005A00005D24046214690461C460B46024623F0A3
:1005B0000040104347D0270DC7F30A00C3F30A5188
:1005C0000290401A019040286BDAC3F3130040F404
:1005D000801B0098924620B10023D2EB030A63EB04
:1005E0000B0B01985946C0F140025046FFF7EDFE53
:1005F00006460D4650465946019A00F01DF910EB8B
:1006000008006141002487EA115284EAE7731A4323
:1006100040D0009A62B3019A012A4FEA075215DCD2
:10062000001B61EB02014FF0004202EA0752CDE9E4
:100630000042001C41F5801132462B46FFF753FF64
:1006400003B0BDE8F08F40462146F9E7001B61EB9F
:100650000201001C41F5801300185B412018A2F52F
:10066000001747EB030140EAD570B6196D4111E060
:100670006D084FEA360645EAC0754FEA0752001B7F
:1006800061EB0201001C41F5801149084FEA30007E
:100690000019514132462B4603B0BDE8F04FFFF739
:1006A00013BF0098012240000023D0EB020263EB4D
:1006B000E073009821464FEAE074B8EB000061EB6C
:1006C0000401E9E783F000435BE781F0004158E76C
:1006D0002DE9FE4F81EA030404F0004421F00041BB
:1006E00000944FF0000B23F0004350EA01045ED069
:1006F00052EA03045BD0C3F30A54C1F30A552C44F5
:10070000A4F2F3340194A0FB0254C1F3130141F4A9
:100710008011C3F3130343F4801301FB024400FB75
:10072000034E840A970A44EA815447EA8357A4FB9C
:10073000076802958D0A05FB07854FEA932C04FB99
:100740000C542705029D4FEA065847EA1637B5EBC9
:1007500008056EEB070C870E920E47EA811742EAF6
:100760008312A7FB0201B6EB0B0164EB00042B0D17
:1007700043EA0C335E1844EB1C50DA465146E7FB63
:100780000201C5F313044FEA0B3343EA14534FEA53
:100790000432019C43EA0603A4F10C040294009C79
:1007A000CDE900B4FFF79FFE03B0BDE8F08F002055
:1007B0000146F9E7C1F30A52C1F3130140F2FF33D6
:1007C00041F480119A4202DA00200146704740F25B
:1007D00033439A42A2F2334202DC5242FFF704BE94
:1007E000FFF7F3BD30B5041E71F1000404DB4FF0D8
:1007F0000044404264EB0101141E73F1000405DB68
:100800001C464FF00043524263EB0403994208BF79
:10081000904230BD064C074D06E0E06840F0010311
:1008200094E8070098471034AC42F6D3FFF784FCF5
:10083000A4E00008C4E00008202A06DBCB17203A19
:1008400041FA02F043EAE07306E041FA02F3D040D5
:10085000C2F12002914008431946704780B541F229
:100860007400C2F2000001F0BBFD41F2A400C2F22C
:10087000000001F0B5FD80BD80B584B0029000207D
:100880000190029800688068C00770B3FFE7029883
:100890000168886820F00100886003F057F9019032
:1008A000FFE7029800688068C007E8B1FFE703F03F
:1008B0004DF90199401A032815D3FFE70298006803
:1008C0008068C00770B1FFE70299886A40F01000A5
:1008D00088620299C86A40F00100C86201208DF860
:1008E0000F0006E0FFE7DCE7FFE700208DF80F00D0
:1008F000FFE79DF80F0004B080BD000080B582B016
:1009000001900198406A00900098806A10F0500FA2
:1009100028D1FFE70099886A40F400708862009847
:100920000068806800F46020B0F5602F16D1FFE702
:100930000098007B90B9FFE70099886A20F48070E6
:1009400088620098806AC004002806D4FFE70099F6
:10095000886A40F001008862FFE7FFE7009801F035
:1009600033FD05E00098006A016B01988847FFE7B6
:1009700002B080BD80B582B001900198406A0090BD
:100980000099886A40F0400088620099C86A40F087
:100990000400C862009801F01FFD02B080BD000095
:1009A00080B582B001900198406A0090009801F0F3
:1009B0000FFD02B080BD000080B584B00290002021
:1009C00001900090029800688068C007002849D113
:1009D000FFE702980168886840F00100886040F2F3
:1009E0001800C2F2000000684DF68361C4F21B31AA
:1009F000A0FB0110800C0090FFE7009820B1FFE7FA
:100A0000009801380090F8E703F0A0F80190FFE7A4
:100A1000029800688068C00718BBFFE703F096F8EB
:100A20000199401A03281BD3FFE7029800688068E9
:100A3000C007A0B9FFE70299886A40F010008862F9
:100A40000299C86A40F00100C862FFE702990020DD
:100A500081F82400FFE701208DF80F0006E0FFE792
:100A6000D6E7FFE700208DF80F00FFE79DF80F00A5
:100A700004B080BD80B586B004908DED030A049863
:100A800090F8340058B9FFE7039804990861049975
:100A9000012081F83400049800690590C4E09DEDC0
:100AA000030A08F015FC049880ED000A9DED030A86
:100AB00008F0C2FB049880ED010A049890ED040A46
:100AC00008F006FC049880ED020A049890ED040AF0
:100AD00008F0B2FB049880ED030A049890ED000A38
:100AE00090ED011A90ED023A90ED032A21EE031ADF
:100AF00020EE020A30EE410A8DED020A049890EDD4
:100B0000001A90ED010A90ED023A90ED032A21EED1
:100B1000031A20EE020A30EE010A8DED010A9DED66
:100B2000020ADDED010A0BF0E1FA8DED000A0098F2
:100B300004994861049890ED050A90ED131AB0EEFF
:100B4000C00AB4EE410AF1EE10FA04DAFFE70499A4
:100B500000204861FFE7049890ED051A90ED060A21
:100B600030EE010A80ED060A049890ED060AD0EDF9
:100B7000070A90ED081A05F0E1FE049890ED052AA9
:100B800090ED063A90ED100A90ED111A21EE031A3D
:100B900020EE020A30EE010A80ED090A049890ED79
:100BA000090AD0ED0B0A90ED0C1A05F0C7FE049867
:100BB00090ED041A90ED090A90ED122A20EE020A37
:100BC00030EE010A80ED040AFFE7049890ED040A74
:100BD0009FED171AB4EE410AF1EE10FA0ADCFFE7B6
:100BE000049890ED040A9FED151A30EE010A80ED8D
:100BF000040AEAE7FFE7049890ED040A9FED0D1A56
:100C0000B4EE410AF1EE10FA0ADDFFE7049890ED28
:100C1000040A9FED091A30EE010A80ED040AEAE7A2
:100C2000049800690590FFE79DED050A06B080BDB8
:100C3000DB0F49C0DB0F4940DB0FC9C0DB0FC940E8
:100C400081B00090009808B9FFE70AE00099002001
:100C500081F8340000998861009908610099486220
:100C6000FFE701B07047000080B586B08DED040A43
:100C7000CDED030A8DED021ACDED011A9DED040AAA
:100C8000B5EE400AF1EE10FA08DDFFE79DED030A2C
:100C9000B5EE400AF1EE10FA03DCFFE70020059004
:100CA00052E054200CF074F80090009818B9FFE757
:100CB0000020059048E000985421FFF7A5FA049819
:100CC0000099886303980099C863009890ED0F0A13
:100CD00030EE000A80ED100A009890ED0E1A90EDAB
:100CE0000F0A20EE000A80EE010A80ED110A00983A
:100CF00090ED0E1AB7EE000A80EE010A80ED120A9E
:100D000002980099C86401980099C862009890ED13
:100D10000C0AB1EE400A80ED0C0A009890ED0B0A27
:100D200090ED111A80EE010A80ED070A009890ED0F
:100D3000070AB1EE400A80ED080A0099002081F808
:100D4000340000980590FFE7059806B080BD0000CC
:100D500080B582B08DED010A00909DED010A08F08A
:100D60006BFA009880ED010A9DED010A08F0B0FAD7
:100D7000009880ED000A02B080BD0000FFE7FEE7AA
:100D800070B588B00F9D0E9CDDF834E0DDF830C002
:100D9000109E07950694CDF814E0CDF810C003938B
:100DA0000292019100909DED000A9DED011A9DEDCA
:100DB000022A31EE021A9FED0E2A21EE021A9FED51
:100DC0000D2A20EE020A30EE010A109880ED000A8A
:100DD0009DED010A9DED021A30EE410A9FED061AC3
:100DE00020EE010A109880ED010A08B070BD00BF26
:100DF000AAAAAABEABAA2A3F3ACD133F80B541F2B8
:100E00001810C2F2000002F085F880BD80B541F2F2
:100E10005C10C2F2000002F07DF880BD84B0039047
:100E20000291019200930398C16B026C01209040E3
:100E30004860009803990968486003984068102842
:100E400009D1FFE70198039909688860029803991E
:100E50000968C86008E002980399096888600198E9
:100E600003990968C860FFE704B0704780B58AB08D
:100E700040F60000C4F2010002904FF400610391BB
:100E8000002202F04BFE0A20049000F0C5F90298FF
:100E90000399012202F042FE049800F0BDF940F2ED
:100EA0001C01C2F2000105A81222FFF794F905996E
:100EB000069A079B0898DDF824E0EC46CCF804E09D
:100EC000CCF8000041F28A30C2F2000000F03CF899
:100ED00008B1FFE7FFE7642000F09EF941F28A3095
:100EE000C2F2000000F002F80AB080BD80B582B006
:100EF0000190002009F02AFD01990880012009F0E5
:100F000025FD01994880022009F020FD0199888083
:100F1000032009F01BFD01990881042009F016FD4A
:100F20000199C880052009F011FD0199488106202A
:100F300009F00CFD01998881072009F007FD01994E
:100F4000C88102B080BD000080B594B00190DDF88A
:100F50005CC01698CDF838C00D900C930B920A9196
:100F60000FA80AA91222FFF736F9019809909DF8F7
:100F70003C200999087902F0030200F09F0040EA42
:100F80004210087109988088ADF81E0008980290F8
:100F9000BDF81E1002200BF019F801460298084314
:100FA00008909DF83D200999087A00F00F0040EA6A
:100FB000021008729DF83E200999087A02F00F028B
:100FC00000F0F000104408729DF83F200999487A1B
:100FD00002F0070200F0F8001044487209980089F6
:100FE000ADF81E0008980390BDF81E1003200AF00B
:100FF000EDFF01460398084308909DF840200999A9
:10100000887902F00F0200F0F000104488719DF81A
:1010100041200999887900F00F0040EA0210887198
:101020009DF842200999C87902F0030200F0FC0003
:101030001044C8719DF843200999C87902F0010253
:1010400000F0FB0040EA8200C8710998C088ADF842
:101050001E0008980490BDF81E1004200AF0B6FF88
:1010600001460498084308909DF844200999887A1D
:1010700002F00F0200F0F000104488729DF8452045
:101080000999887A02F0030200F0CF0040EA0210CA
:1010900088729DF846200999887A00F03F0040EA5E
:1010A000821088729DF847200999C87A02F00302DD
:1010B00000F0FC001044C87209984089ADF81E0089
:1010C00008980590BDF81E1005200AF07FFF014624
:1010D0000598084308909DF848200999087B02F07C
:1010E000030200F0FC00104408739DF849200999A0
:1010F000087B00F03F0040EA821008739DF84A2008
:101100000999487B02F0010200F0FD0040EA42002C
:1011100048739DF84B200999087B02F0010200F00A
:10112000EF0040EA021008739DF84C200999087BF3
:1011300002F0010200F0F70040EAC20008739DF8D7
:101140004D200999087B02F0010200F0FB0040EA03
:101150008200087309988089ADF81E0008980690EF
:10116000BDF81E1006200AF031FF0146069808431C
:101170000890089814B080BD4EF6FC51CEF20001E4
:10118000086840F08070086041F20401CEF200016E
:101190000020086041F20001CEF20001086840F032
:1011A000010008607047000080B582B0019040F6F1
:1011B000D000C2F2000090ED082A90ED0B0A9FEDDE
:1011C000101A22EE011A9FED0F3A80EE030A30EE5C
:1011D000000A30EE000A9FED0C3A20EE030A60EEA2
:1011E000021A9FED0A0ADFED0A0AFFF73DFD40F6FD
:1011F0000811C2F200010860002002B080BD00BFEB
:101200007CD9203900007042DB0F494000401C4669
:1012100000007A437047000080B582B001900198C9
:1012200002F09AFA02B080BD85B0049000200090D0
:101230000498C0EB0010C00003904EF21800CEF2EC
:10124000000000680290FFE74EF21800CEF20000A6
:101250000068019001980299884222D0FFE7019826
:101260000299884207D2FFE702980199411A009833
:10127000084400900CE04EF21400CEF2000000682A
:101280000199401A02990144009808440090FFE730
:101290000198029000980399884201D3FFE701E08A
:1012A000FFE7D1E705B0704781B0EFF3108072B669
:1012B0000090FFE7FEE7000091B0CDED100A8DED44
:1012C0000F0A0E908DED0D1AADF832109DED0F0A3C
:1012D0009DED0D1A80EE010A8DED0B0A9DED100AB1
:1012E0009DED0D1A80EE010A8DED0A0A0B9809900A
:1012F0009DED0B0A9DED0A1A9FED773A21EE031A38
:10130000BEEE002A20EE020A30EE010A8DED080A38
:101310009DED0B0A9DED0A1A21EE031A20EE020A3A
:1013200030EE410A8DED070A9DED090A9DED081A80
:10133000B4EE410AF1EE10FA05DDFFE79DED090A72
:101340008DED030A04E09DED080A8DED030AFFE729
:101350009DED030A8DED060A9DED060A9DED071A27
:10136000B4EE410AF1EE10FA05DDFFE79DED060A45
:101370008DED020A04E09DED070A8DED020AFFE7FC
:101380009DED020A8DED060A9DED090A9DED081AF4
:10139000B4EE410AF1EE10FA05DAFFE79DED090A15
:1013A0008DED010A04E09DED080A8DED010AFFE7CD
:1013B0009DED010A8DED050A9DED050A9DED071ACB
:1013C000B4EE410AF1EE10FA05DAFFE79DED050AE9
:1013D0008DED000A04E09DED070A8DED000AFFE7A0
:1013E0009DED000A8DED050A9DED060A9DED051A9D
:1013F00030EE010AB6EE002A20EE020A8DED040A54
:101400009DED041A9DED090A30EE410A8DED090AA1
:101410009DED041A9DED080A30EE410A8DED080A93
:101420009DED041A9DED070A30EE410A8DED070A85
:10143000BDF8320000EE100AB8EEC01A9DED090AA0
:1014400020EE010A8DED090ABDF8320000EE100A07
:10145000B8EEC01A9DED080A20EE010A8DED080ACB
:10146000BDF8320000EE100AB8EEC01A9DED070A72
:1014700020EE010A8DED070A9DED091ABDF8320034
:1014800000EE100AB8EEC00A20EE020A30EE010AA1
:101490000E9880ED000A9DED081ABDF8320000EEAE
:1014A000100AB8EEC00A20EE020A30EE010A0E98C9
:1014B00080ED010A9DED071ABDF8320000EE100A1A
:1014C000B8EEC00A20EE020A30EE010A0E9880ED56
:1014D000020A11B0704700BFD7B35D3F80B586B038
:1014E000049000208DF80F000190FFE7049890F819
:1014F0002400012804D1FFE702208DF81700AEE098
:101500000499012081F82400FFE7FFE70498FFF722
:10151000B3F98DF80F000498FFF74EFA8DF80F001D
:101520009DF80F00002840F08F80FFE70498806A44
:1015300040F0020020F488500499886240F21800BC
:10154000C2F2000000680090022002F0BDFB0146DC
:101550000098B0FBF1F040000190FFE7019820B146
:10156000FFE7019801380190F8E70498016888685E
:1015700040F00800886002F0E9FA0290FFE7049862
:10158000006880680007002822D5FFE702F0DEFA35
:101590000299401A0B281AD3FFE704980068806864
:1015A0000007002812D5FFE70498806A40F0100079
:1015B00020F0020004998862FFE70499002081F876
:1015C0002400FFE701208DF8170048E0FFE7D6E789
:1015D00004980168886840F00400886002F0B6FA58
:1015E0000290FFE70498006880684007002822D531
:1015F000FFE702F0ABFA0299401A0B281AD3FFE773
:101600000498006880684007002812D5FFE7049816
:10161000806A40F0100020F0020004998862FFE721
:101620000499002081F82400FFE701208DF81700BD
:1016300015E0FFE7D6E70498806A40F0010020F04B
:10164000020004998862FFE7FFE70499002081F80F
:101650002400FFE79DF80F008DF81700FFE79DF8C5
:10166000170006B080BD000089B0079006910020E9
:101670008DF8170004900798806808B1FFE7FFE72E
:10168000FFE7079890F82400012804D1FFE7022023
:101690008DF8230096E10799012081F82400FFE7E7
:1016A000FFE707988068E0B9FFE7069840680128DF
:1016B0000DD1FFE707980068806B6FF3150006995E
:1016C000096840EAC13007990968886308E007990A
:1016D000886A40F02000886201208DF81700FFE73B
:1016E00039E006994868096988421FD8FFE70798DA
:1016F0000068806B069B1A685968D3F810C0A1EB8C
:101700000C0101EB810101F10F031F219940884376
:1017100020F440100021CFF6F07101EB0C519A40FB
:101720001143084307990968886313E00798006824
:10173000806B069A51681269891A01EB810101F1E7
:101740000F021F219140884320F440100799096837
:101750008863FFE7FFE7079800688068C00760BB01
:10176000FFE707980068806847F20101884303900B
:101770000798006843F60041C4F20101884211D184
:10178000FFE706988069B0F5C04F04D1FFE74FF43A
:101790008040029003E0069880690290FFE702987B
:1017A000019003E0069880690190FFE70398019992
:1017B0000843079909688860FFE70698407D01287B
:1017C00017D1FFE706988069B0F5E04F07D1FFE732
:1017D00007980168486840F48060486008E007990D
:1017E000886A40F02000886201208DF81700FFE72A
:1017F000FFE70698007D012815D1FFE70698407D98
:1018000038B9FFE707980168486840F4805048609D
:1018100008E00799886A40F02000886201208DF86E
:101820001700FFE7FFE7069800680A2812D3FFE7D2
:1018300007980068C06806990A68896802EB420246
:101840001E3A07239340984391400843079909683B
:10185000C86010E007980068006906990A688968FE
:1018600002EB4202072393409843914008430799B3
:1018700009680861FFE706980068102805D0FFE7AF
:1018800006980068112807D1FFE707980168886863
:1018900040F400008860FFE7069840680138014680
:1018A000009103282CD80099DFE801F0020F1C29D1
:1018B00007980068406940F6FF7188430699C96837
:1018C000084307990968486127E00798006880691C
:1018D00040F6FF7188430699C9680843079909686B
:1018E00088611AE007980068C06940F6FF71884374
:1018F0000699C968084307990968C8610DE0FFE7C0
:1019000007980068006A40F6FF7188430699C96825
:101910000843079909680862FFE7069800681028DD
:1019200005D0FFE706980068112840D1FFE7079827
:10193000006842F20041C4F2010188422DD1FFE764
:101940000798006880680002002825D4FFE7079800
:101950000168886840F400008860069800681028D4
:1019600019D1FFE740F21800C2F2000000684DF6FE
:101970008361C4F21B31A0FB0110800C00EB8000DE
:1019800040000490FFE7049820B1FFE70498013875
:101990000490F8E7FFE7FFE708E00799886A40F05E
:1019A0002000886201208DF81700FFE7FFE7FFE7BE
:1019B0000799002081F82400FFE79DF817008DF8B3
:1019C0002300FFE79DF8230009B0704700000000E6
:1019D000F0B599B018901898006841F27401C2F2FD
:1019E00000010968884240F00382FFE740F6C80022
:1019F000C2F200004078052803D1FFE705F0E4FAC1
:101A0000F6E141F20400CEF200001690006841F2C7
:101A10008431C2F200011791086040F60040C4F220
:101A20000100202102F066F840F25000C2F20000EE
:101A3000099007F095FC099890ED000A40F6D00057
:101A4000C2F20000139090ED081A20EE010ADFEDBB
:101A5000EC0A0AF0A1FC099981ED040A40F29C000D
:101A6000C2F200000A90006891ED040AFFF702F844
:101A70000A9840F60C11C2F200010B9181ED000AA8
:101A8000006890ED090A90ED0A1A9FEDDE2A21EE1A
:101A9000021A9FEDDD2A20EE020A30EE010A80EDE7
:101AA0000A0A42F23C40C4F20100016840F6D870D4
:101AB000C2F200000C90018242F63C01C4F2010126
:101AC0000968C18190ED070AB8EEC01A018A00EEDC
:101AD000101AB8EEC00A30EE410A9FEDCC1A20EE83
:101AE000010A80ED020A90ED060AB8EEC02AC1890B
:101AF00000EE101AB8EEC00A30EE420A20EE010ADB
:101B000080ED010A90ED011A90ED020AB1EE400A53
:101B100030EE410A80ED000A90ED000AD0ED010A96
:101B200090ED021A08F03EFC40F24000C2F20000C4
:101B3000008800EE100AB8EEC00A9FEDB51A20EE3C
:101B4000010A40F67010C2F2000080ED000A41F276
:101B50005030C2F200000E90B0EE080A9FEDAD1AB0
:101B6000F0EE410A0AF0B8F80B9890ED000A41F245
:101B70002C00C2F200001290FFF7EAF8DDF830E026
:101B8000DEF80000DEF80410DEF80820DEF80C3085
:101B9000DEF810C0DEF81440DEF81850DEF81C60E5
:101BA00040F6F877C2F200070D97EE46CEF81070B7
:101BB000CEF80C60CEF80850CEF80440CEF800C045
:101BC000FFF7DEF80D99129891ED000AD1ED010AA8
:101BD00090ED001AD0ED011A41F20800C2F20000A7
:101BE0000F9005F0B1FB0E980F9991ED000A91ED61
:101BF000021A9FED893A21EE031A9FED882A20EE02
:101C0000020A30EE010A81ED000A0A688A6091ED4D
:101C1000010A91ED031A21EE031A20EE020A30EEBA
:101C2000010A81ED010A4A68CA60826940F6A4701F
:101C3000C2F200001090426240F67872C2F20002D6
:101C40001192002353620B6883624968916208F025
:101C500005F8119808F002F81098119A1299036982
:101C600041F21800C2F2000043601269026091ED77
:101C7000000AD1ED010A90ED001AD0ED011A41F2EF
:101C80000000C2F20000149005F034FC139914987F
:101C900091ED000A011DDFED620A05F0A3FB139927
:101CA000149891ED001A90ED000AD0ED010A41F26E
:101CB0002000C2F20000159041F27071FFF7FCFAAB
:101CC000159890ED000ABCEEC00A42F63441C4F209
:101CD000010181ED000A90ED010ABCEEC00A42F656
:101CE0003841C4F2010181ED000A90ED020ABCEE18
:101CF000C00A42F63C40C4F2010080ED000A04F044
:101D00003DFC16981799026840F6D470C2F20000A4
:101D1000026002680B68D21A40F6D073C2F2000368
:101D20001A6000680968884211D2FFE741F28430E6
:101D3000C2F20000016840F6D470C2F200000068F0
:101D4000401A40F6D071C2F20001086010E040F67F
:101D5000D470C2F20000006841F28431C2F2000186
:101D60000968401A40F6D071C2F200010860FFE72E
:101D700040F6D070C2F2000090ED000AB8EE400AC2
:101D800010EE100AFEF7DCFA41EC100B8DED060B9D
:101D900040F21800C2F200000068FEF7C4FA41ECFD
:101DA000100B9FED151B53EC112B51EC100BFEF794
:101DB0004BFA9DED060B41EC110B53EC112B51EC42
:101DC000100BFEF741FA41EC100B51EC100BFEF733
:101DD000CAFA41F2BC31C2F20001086041F234019A
:101DE000C2F2000141F6D110C0F600000860FFE722
:101DF00019B0F0BD00BF00BF0000000080842E417C
:101E0000DB0FC9409A99993E3333333F4333D33A7A
:101E10006740533C0AD7233DCCCC4C3ECDCC4C3F05
:101E20003333733F80B584B0029000208DF80700F3
:101E3000FFE7029890F82400012804D1FFE7022070
:101E40008DF80F008FE00299012081F82400FFE750
:101E5000FFE70298FEF7B0FD8DF807009DF8070038
:101E6000002874D1FFE70298806A40F4805042F263
:101E700001018843029988620298006842F60001D5
:101E8000C4F20101884209D1FFE742F20440C4F2E2
:101E90000100006810F4702F03D008E0002030B972
:101EA000FFE70299886A20F48010886205E00299B1
:101EB000886A40F480108862FFE70298806AC00553
:101EC000002804D4FFE702990020C862FFE7FFE77B
:101ED0000299002081F82400FFE7029801686FF062
:101EE00004000860029800684068400500282DD46E
:101EF000FFE702980068806800F4E040B0F5E04F2A
:101F00001CD1FFE70298006842F60001C4F201010B
:101F1000884209D1FFE742F20440C4F201000068A0
:101F200010F4702F03D009E0002038B9FFE70298C1
:101F30000168886840F40210886006E00298016831
:101F4000886840F400408860FFE7FFE706E0FFE7AD
:101F50000299002081F82400FFE7FFE79DF80700C1
:101F60008DF80F00FFE79DF80F0004B080BD000062
:101F700080B584B0029000208DF80700FFE702983A
:101F800090F82400012804D1FFE702208DF80F000B
:101F900095E00299012081F82400FFE7FFE702980D
:101FA000FEF70AFD8DF807009DF8070000287AD19A
:101FB000FFE70298806A40F4805042F201018843B2
:101FC000029988620298006842F60001C4F2010199
:101FD000884209D1FFE742F20440C4F201000068E0
:101FE00010F4702F03D008E0002030B9FFE7029909
:101FF000886A20F48010886205E00299886A40F4BB
:1020000080108862FFE70298806AC005002804D427
:10201000FFE702990020C862FFE7FFE7029900206E
:1020200081F82400FFE7029801686FF0040008605F
:1020300002980168486840F0800048600298006893
:102040004068400500282DD4FFE7029800688068AA
:1020500000F4E040B0F5E04F1CD1FFE702980068C3
:1020600042F60001C4F20101884209D1FFE742F2C1
:102070000440C4F20100006810F4702F03D009E09E
:10208000002038B9FFE702980168886840F4021020
:10209000886006E002980168886840F40040886023
:1020A000FFE7FFE706E0FFE70299002081F8240040
:1020B000FFE7FFE79DF807008DF80F00FFE79DF8A9
:1020C0000F0004B080BD000080B584B002900020F5
:1020D0008DF80700FFE7029890F82400012804D14A
:1020E000FFE702208DF80F0039E00299012081F806
:1020F0002400FFE7FFE70298806AC00500281AD491
:10210000FFE70298006840684005002813D4FFE705
:102110000298FEF7B1FB8DF807009DF8070048B95B
:10212000FFE70298806A40F0010020F4885002998D
:102130008862FFE708E00299886A40F02000886220
:1021400001208DF80700FFE7FFE70299002081F8E2
:102150002400FFE79DF807008DF80F00FFE79DF8CA
:102160000F0004B080BD000080B584B00290002054
:102170008DF80700FFE7029890F82400012804D1A9
:10218000FFE702208DF80F003FE00299012081F85F
:102190002400FFE7FFE70298806AC005002820D4EA
:1021A000FFE70298006840684005002819D4FFE75F
:1021B0000298FEF761FB8DF807009DF8070078B9DB
:1021C000FFE702980168486820F0800048600298A4
:1021D000806A40F0010020F4885002998862FFE78D
:1021E00008E00299886A40F02000886201208DF89A
:1021F0000700FFE7FFE70299002081F82400FFE7CE
:102200009DF807008DF80F00FFE79DF80F0004B060
:1022100080BD000085B00390029100208DF807007A
:102220000090FFE7039890F82400012804D1FFE70D
:1022300002208DF81300C3E00399012081F82400E7
:10224000FFE7FFE702984068062812D8FFE70398E7
:102250000068406B029A1168526802EB8202053AEC
:102260001F239340984391400843039909684863AA
:1022700029E0029840680C2812D8FFE7039800680C
:10228000006B029A1168526802EB8202233A1F2304
:10229000934098439140084303990968086311E00B
:1022A00003980068C06A029A1168526802EB8202C1
:1022B000413A1F239340984391400843039909688A
:1022C000C862FFE7FFE7029800680A2812D3FFE719
:1022D00003980068C06802990A68896802EB4202A4
:1022E0001E3A072393409843914008430399096895
:1022F000C86010E003980068006902990A6889685C
:1023000002EB42020723934098439140084303990C
:1023100009680861FFE702980068102805D0FFE708
:1023200002980068112840D1FFE70398006842F244
:102330000041C4F2010188422DD1FFE703980068F3
:1023400080680002002825D4FFE7039801688868A8
:1023500040F40000886002980068102819D1FFE757
:1023600040F21800C2F2000000684DF68361C4F22A
:102370001B31A0FB0110800C00EB8000400000909E
:10238000FFE7009820B1FFE7009801380090F8E7D8
:10239000FFE7FFE708E00399886A40F020008862C1
:1023A00001208DF80700FFE7FFE7FFE70399002012
:1023B00081F82400FFE79DF807008DF81300FFE780
:1023C0009DF8130005B0704781B0009001B07047D0
:1023D00081B0009001B0704781B0009001B07047AB
:1023E00080B584B003900398006800680290039859
:1023F0000068406801909DF804008006002841D5DF
:10240000FFE79DF80800800700283AD5FFE703980A
:10241000806AC006002806D4FFE70399886A40F462
:1024200000708862FFE703980068806800F460200D
:10243000B0F5602F1CD1FFE70398007BC0B9FFE720
:1024400003980168486820F0200048600399886A72
:1024500020F4807088620398806AC004002806D443
:10246000FFE70399886A40F001008862FFE7FFE711
:102470000398FFF7A9FF039801686FF01200086046
:10248000FFE7FFE79DF804000006002851D5FFE7AD
:102490009DF80800400700284AD5FFE70398806AA6
:1024A000C006002806D4FFE70399886A40F400506C
:1024B0008862FFE703980068806800F4E040B0F5A8
:1024C000E04F14D0FFE703980068406840050028FB
:1024D00025D4FFE703980068806800F46020B0F519
:1024E000602F1CD1FFE70398007BC0B9FFE703987A
:1024F0000168486820F0800048600399886A20F4E9
:10250000805088620398806AC005002806D4FFE7DF
:102510000399886A40F001008862FFE7FFE70398AB
:10252000FFF756FA039801686FF00C000860FFE7A8
:10253000FFE79DF804004006002814D5FFE79DF84A
:102540000800C00770B1FFE70399886A40F4803043
:102550008862039800F034F9039801686FF0010075
:102560000860FFE7FFE704B080BD000080B58CB0D5
:102570000A9000208DF827000890079006900A988E
:1025800020B9FFE701208DF82F0014E10A98806838
:1025900030B1FFE70A98007D08B1FFE7FFE7FFE7EA
:1025A0000A98806A50B9FFE70A990020C8620A9920
:1025B00081F824000A9800F007F9FFE70A98FEF76F
:1025C0005BF98DF827000A98806AC006002800F1A0
:1025D000E480FFE79DF82700002840F0DE80FFE759
:1025E0000A98806A40F0020020F488500A998862B4
:1025F0000A9908684968059143F60041C4F201014F
:10260000884211D1FFE70A98C069B0F5402F04D184
:10261000FFE74FF40020049003E00A98C06904909B
:10262000FFE70498039003E00A98C0690390FFE76E
:102630000598039908430A99097B40EA41010798E4
:10264000084307900A9881680120B1F5807F0290C5
:1026500008D0FFE70A9880680138B0FA80F0400996
:102660000290FFE702990898CA0740F48071002A97
:1026700018BF084608900A98007D01281ED1FFE780
:102680000A98007B70B9FFE70A9881694EF2000052
:10269000CFF6FF7000EB41300899084340F400602A
:1026A00008900AE00A99886A40F0200088620A9936
:1026B000C86A40F00100C862FFE7FFE70A980068B7
:1026C000406820F46940089908430A9909684860FD
:1026D0000A98006880684FF2FD71CFF6E1710840FA
:1026E000079908430A99096888600A988168012057
:1026F000B1F5807F019008D0FFE70A988068013823
:10270000B0FA80F040090190FFE7019800F0010065
:10271000002818BF4FF48070B0F5807F09D1FFE723
:102720000A9801690020CFF6F07000EB0150069086
:10273000FFE70A980068C06A20F470000699084311
:102740000A990968C8620A980068806840F6FE61C4
:10275000CFF61F710840079988420CD1FFE70A990C
:102760000020C8620A98806A40F0010020F0020050
:102770000A99886210E00A98806A40F0100020F000
:1027800002000A9988620A99C86A40F00100C8628A
:1027900001208DF82700FFE708E00A99886A40F0D9
:1027A0001000886201208DF82700FFE79DF82700C0
:1027B0008DF82F00FFE79DF82F000CB080BD0000C2
:1027C00081B0009001B0704780B590B00F900020AC
:1027D0000E900D900C900B900F98006842F2004103
:1027E000C4F20101884277D1FFE7FFE741F2180008
:1027F000C4F20200016841F400710160006800F455
:1028000000700A900A98FFE7FFE741F21800C4F24F
:102810000200016841F010010160006800F0100042
:1028200009900998FFE7FFE741F21800C4F202009F
:10283000016841F004010160006800F004000890A4
:102840000898FFE729200B90032003900C9041F299
:102850000000C4F201000BA9049100F09FFF03984F
:102860000499D0220B920C9040F60000C4F20100B3
:1028700000F094FF41F2D400C2F20000059008215C
:10288000C4F2020101600021416081608022C260C7
:102890004FF4807202614FF48062426120228261B3
:1028A000C16100F079FE18B1FFE7FEF7FDFCFFE71C
:1028B000FFE70F9841F2D401C2F2000101620F98C4
:1028C0004862FFE7122002900121002201F0DAF9AC
:1028D000029801F0CDF93CE00F98006842F6000143
:1028E000C4F20101884233D1FFE7FFE741F218004B
:1028F000C4F20200016841F480610160006800F4E4
:10290000806007900798FFE7FFE741F21800C4F2E4
:102910000200016841F010010160006800F0100041
:1029200006900698FFE702200B9003200C9041F2DE
:102930000000C4F201000BA900F030FF122001904A
:102940000121002201F09EF9019801F091F9FFE7C1
:10295000FFE710B080BD000080B586B00490039101
:10296000029200208DF807000498006842F20041AE
:10297000C4F20101884209D0FFE70498006842F6DA
:102980000001C4F20101884209D1FFE742F204408C
:10299000C4F20100006800F47020009002E0002002
:1029A0000090FFE70098002840F0DC80FFE7FFE799
:1029B000049890F82400012804D1FFE702208DF844
:1029C0001700D8E00499012081F82400FFE7FFE711
:1029D0000498FDF7F1FF8DF807009DF80700002827
:1029E00040F0B880FFE70498806A40F4807040F6B9
:1029F00001618843049988620498006842F60001E6
:102A0000C4F20101884209D1FFE742F20440C4F256
:102A10000100006810F4702F03D018E00020B0B956
:102A2000FFE70499886A20F480108862049800689F
:102A300040684005002809D5FFE70498806A40F403
:102A4000805020F4005004998862FFE72CE004993C
:102A5000886A40F4801088620498006842F200415D
:102A6000C4F20101884209D0FFE70498006842F6E9
:102A70000001C4F20101884209D1FFE742F204409B
:102A8000C4F2010000684005002803D40BE00120D7
:102A900048B9FFE70498806A40F4805020F4005061
:102AA00004998862FFE7FFE70498806AC004002861
:102AB00006D5FFE70499C86A20F00600C86203E063
:102AC00004990020C862FFE7FFE70499002081F81D
:102AD0002400FFE70498016A40F6FD00C0F60000FC
:102AE00088620498016A40F6A110C0F60000C8622E
:102AF0000498016A40F67510C0F600000863049857
:102B000001686FF00200086004980168886840F46A
:102B10008070886004980168006A4C31039A029BB7
:102B200000F0B4FD04980068806800F46020B0F5FF
:102B3000602F07D1FFE704980168886840F4A0007F
:102B4000886006E004980168886840F48010886016
:102B5000FFE706E0FFE70499002081F82400FFE783
:102B6000FFE703E001208DF80700FFE79DF807006D
:102B70008DF81700FFE79DF8170006B080BD000034
:102B800083B0019000208DF80300019890F8210097
:102B900002280DD0FFE7019904208863FFE701991F
:102BA000002081F82000FFE701208DF80B0021E0D4
:102BB00001980168086820F00E000860019801681B
:102BC000086820F0010008600198C16B026C0120C8
:102BD00090404860FFE70199012081F82100FFE75C
:102BE0000199002081F82000FFE79DF803008DF88F
:102BF0000B00FFE79DF80B0003B0704780B596B05F
:102C0000159000208DF85300159890F821000228A7
:102C100007D0FFE715990420886301208DF8530041
:102C200074E115980168086820F00E000860159896
:102C30000168086820F0010008601598006881218B
:102C4000C4F202018842C0F0A880FFE7159800682E
:102C50000821C4F20201884203D1FFE7012013904A
:102C600094E0159800681C21C4F20201884203D147
:102C7000FFE71020129086E0159800683021C4F21A
:102C80000201884204D1FFE74FF48070119077E091
:102C9000159800684421C4F20201884204D1FFE77C
:102CA0004FF48050109068E0159800685821C4F2E5
:102CB0000201884204D1FFE74FF480300F9059E0C1
:102CC000159800686C21C4F20201884204D1FFE724
:102CD0004FF480100E904AE0159800688021C4F2ED
:102CE0000201884204D1FFE74FF080700D903BE075
:102CF0001598006840F20841C4F20201884203D1ED
:102D0000FFE701200C902CE01598006840F21C4170
:102D1000C4F20201884203D1FFE710200B901DE0AE
:102D20001598006840F23041C4F20201884204D193
:102D3000FFE74FF480700A900DE01598016840F2AB
:102D40004442C4F202024FF48030914208BF4FF473
:102D500080500A90FFE70A980B90FFE70B980C90C1
:102D6000FFE70C980D90FFE70D980E90FFE70E9887
:102D70000F90FFE70F981090FFE710981190FFE772
:102D800011981290FFE712981390FFE7139840F202
:102D90000441C4F202010860A5E01598006808210A
:102DA000C4F20201884203D1FFE70120099094E0B8
:102DB000159800681C21C4F20201884203D1FFE784
:102DC0001020089086E0159800683021C4F20201B6
:102DD000884204D1FFE74FF48070079077E01598A0
:102DE00000684421C4F20201884204D1FFE74FF495
:102DF0008050069068E0159800685821C4F20201DE
:102E0000884204D1FFE74FF48030059059E01598CF
:102E100000686C21C4F20201884204D1FFE74FF43C
:102E2000801004904AE0159800688021C4F20201E5
:102E3000884204D1FFE74FF0807003903BE0159883
:102E4000006840F20841C4F20201884203D1FFE762
:102E5000012002902CE01598006840F21C41C4F259
:102E60000201884203D1FFE7102001901DE0159870
:102E7000006840F23041C4F20201884204D1FFE709
:102E80004FF4807000900DE01598016840F24442C4
:102E9000C4F202024FF48030914208BF4FF48050D8
:102EA0000090FFE700980190FFE701980290FFE78C
:102EB00002980390FFE703980490FFE704980590B9
:102EC000FFE705980690FFE706980790FFE7079849
:102ED0000890FFE708980990FFE709980421C4F2D9
:102EE00002010860FFE71599012081F82100FFE742
:102EF0001599002081F82000FFE71598406B20B15C
:102F0000FFE71598416B8847FFE7FFE79DF85300FF
:102F100016B080BD80B5ACB02B902B98C06B00680C
:102F20002A902B980068006829902A982B99096CA0
:102F3000C8404007002840F17581FFE79DF8A400D4
:102F40004007002840F16E81FFE72B980068006879
:102F50008006002807D4FFE72B980168086820F056
:102F600004000860FFE72B9800688121C4F2020189
:102F70008842C0F0A880FFE72B9800680821C4F2BF
:102F80000201884203D1FFE70420289094E02B98A7
:102F900000681C21C4F20201884203D1FFE74020EF
:102FA000279086E02B9800683021C4F20201884205
:102FB00004D1FFE74FF48060269077E02B980068FB
:102FC0004421C4F20201884204D1FFE74FF480405B
:102FD000259068E02B9800685821C4F202018842CD
:102FE00004D1FFE74FF48020249059E02B9800682B
:102FF0006C21C4F20201884204D1FFE74FF4800043
:1030000023904AE02B9800688021C4F20201884294
:1030100004D1FFE74FF0806022903BE02B980068DE
:1030200040F20841C4F20201884203D1FFE70420C4
:1030300021902CE02B98006840F21C41C4F2020160
:10304000884203D1FFE7402020901DE02B980068C4
:1030500040F23041C4F20201884204D1FFE74FF44C
:1030600080601F900DE02B98016840F24442C4F24A
:1030700002024FF48020914208BF4FF480401F901D
:10308000FFE71F982090FFE720982190FFE7219805
:103090002290FFE722982390FFE723982490FFE7F0
:1030A00024982590FFE725982690FFE726982790FB
:1030B000FFE727982890FFE7289840F20441C4F2E0
:1030C00002010860A5E02B9800680821C4F2020103
:1030D000884203D1FFE704201E9094E02B980068FB
:1030E0001C21C4F20201884203D1FFE740201D9059
:1030F00086E02B9800683021C4F20201884204D196
:10310000FFE74FF480601C9077E02B980068442123
:10311000C4F20201884204D1FFE74FF480401B90C3
:1031200068E02B9800685821C4F20201884204D15B
:10313000FFE74FF480201A9059E02B9800686C212B
:10314000C4F20201884204D1FFE74FF480001990D5
:103150004AE02B9800688021C4F20201884204D121
:10316000FFE74FF0806018903BE02B98006840F23A
:103170000841C4F20201884203D1FFE704201790FE
:103180002CE02B98006840F21C41C4F202018842F6
:1031900003D1FFE7402016901DE02B98006840F215
:1031A0003041C4F20201884204D1FFE74FF480604D
:1031B00015900DE02B98016840F24442C4F20202DF
:1031C0004FF48020914208BF4FF480401590FFE7F4
:1031D00015981690FFE716981790FFE71798189024
:1031E000FFE718981990FFE719981A90FFE71A98C7
:1031F0001B90FFE71B981C90FFE71C981D90FFE7B2
:103200001D981E90FFE71E980421C4F20201086079
:10321000FFE72B98C06A20B1FFE72B98C16A884767
:10322000FFE7B7E12A982B99096CC840800700286E
:1032300040F17F81FFE79DF8A4008007002840F15E
:103240007881FFE72B9800680068800600280BD47F
:10325000FFE72B980168086820F00A0008602B99A6
:10326000012081F82100FFE72B9800688121C4F23A
:1032700002018842C0F0A880FFE72B98006808216F
:10328000C4F20201884203D1FFE70220149094E0C7
:103290002B9800681C21C4F20201884203D1FFE789
:1032A0002020139086E02B9800683021C4F20201A0
:1032B000884204D1FFE74FF40070129077E02B981A
:1032C00000684421C4F20201884204D1FFE74FF4B0
:1032D0000050119068E02B9800685821C4F2020158
:1032E000884204D1FFE74FF40030109059E02B984A
:1032F00000686C21C4F20201884204D1FFE74FF458
:1033000000100F904AE02B9800688021C4F202015F
:10331000884204D1FFE74FF000700E903BE02B98FD
:10332000006840F20841C4F20201884203D1FFE77D
:1033300002200D902CE02B98006840F21C41C4F252
:103340000201884203D1FFE720200C901DE02B985A
:10335000006840F23041C4F20201884204D1FFE724
:103360004FF400700B900DE02B98016840F244423E
:10337000C4F202024FF40030914208BF4FF40050F3
:103380000B90FFE70B980C90FFE70C980D90FFE770
:103390000D980E90FFE70E980F90FFE70F98109092
:1033A000FFE710981190FFE711981290FFE712982D
:1033B0001390FFE713981490FFE7149840F204412C
:1033C000C4F202010860A5E02B9800680821C4F24D
:1033D0000201884203D1FFE702200A9094E02B9873
:1033E00000681C21C4F20201884203D1FFE72020BB
:1033F000099086E02B9800683021C4F202018842CF
:1034000004D1FFE74FF40070089077E02B98006834
:103410004421C4F20201884204D1FFE74FF4005076
:10342000079068E02B9800685821C4F20201884296
:1034300004D1FFE74FF40030069059E02B98006864
:103440006C21C4F20201884204D1FFE74FF400105E
:1034500005904AE02B9800688021C4F2020188425E
:1034600004D1FFE74FF0007004903BE02B98006818
:1034700040F20841C4F20201884203D1FFE7022072
:1034800003902CE02B98006840F21C41C4F202012A
:10349000884203D1FFE7202002901DE02B980068AE
:1034A00040F23041C4F20201884204D1FFE74FF4F8
:1034B000007001900DE02B98016840F24442C4F284
:1034C00002024FF40030914208BF4FF400500190C7
:1034D000FFE701980290FFE702980390FFE7039847
:1034E0000490FFE704980590FFE705980690FFE732
:1034F00006980790FFE707980890FFE7089809905B
:10350000FFE709980A90FFE70A980421C4F2020134
:103510000860FFE7FFE72B99002081F82000FFE714
:103520002B98806A20B1FFE72B98816A8847FFE7D4
:103530002FE02A982B99096CC8400007002827D54E
:10354000FFE79DF8A4000007002821D5FFE72B988E
:103550000168086820F00E0008602B98C26B016CAF
:10356000012000FA01F151602B9988632B9981F8B1
:103570002100FFE72B99002081F82000FFE72B981E
:10358000006B20B1FFE72B98016B8847FFE7FFE74F
:10359000FFE7FFE72CB080BD83B0019000200090D2
:1035A000019820B9FFE701208DF80B006AE001982F
:1035B000006840F20741C4F20201884218D8FFE7D0
:1035C000019908684FF6F872CBF6FD7210444CF67C
:1035D000CD42CCF6CC42A0FB02026FF0030000EA21
:1035E0009200086401990020C4F20200C86318E048
:1035F000019908684FF6F832CBF6FD7210444CF68C
:10360000CD42CCF6CC42A0FB02026FF0030000EAF0
:1036100092000864019940F20040C4F20200C863BD
:10362000FFE70199022081F82100019800680068F5
:103630000090009843F6F071884300900199486823
:10364000D1F808C0CB680A6940EA0C00184310435F
:103650004A6910438A691043C969014300980843C5
:10366000009000980199096808600199002088631A
:10367000019A012182F82110019981F820008DF82A
:103680000B00FFE79DF80B0003B0704780B586B0D4
:10369000049003910292019300208DF80300FFE74C
:1036A000049890F82000012804D1FFE702208DF84B
:1036B00017004CE00499012081F82000FFE7FFE7A4
:1036C000049890F82100012832D1FFE704990220E4
:1036D00081F8210004990020886304980168086833
:1036E00020F00100086004980399029A019BFDF7FD
:1036F00095FB0498C06A38B1FFE704980168086830
:1037000040F00E0008600CE004980168086820F0A2
:103710000400086004980168086840F00A00086026
:10372000FFE704980168086840F00100086009E0BC
:10373000FFE70499002081F82000FFE702208DF8C0
:103740000300FFE79DF803008DF81700FFE79DF8E1
:10375000170006B080BD000080B584B0039000F073
:10376000F5F90290039801900198013048B1FFE704
:1037700040F22E00C2F20000017801980844019046
:10378000FFE7FFE700F0E2F90299401A0199884249
:1037900001D2FFE7F6E704B080BD000092B01190BF
:1037A000109100200F900B90FFE7109800680F9980
:1037B000C840002800F09B81FFE70F990120884056
:1037C0000E90109800680E9908400D900D980E9973
:1037D000884240F08881FFE71098406807900028F1
:1037E00051D0FFE7079801283AD0FFE70798022851
:1037F0003FD0FFE7079803285FD0FFE7079811281D
:1038000032D0FFE70798122838D0FFE70798002149
:10381000C1F21101884236D0FFE707980021C1F2BA
:10382000120188422FD0FFE707980021C1F2210141
:10383000884228D0FFE707980021C1F22201884280
:1038400021D0FFE707980021C1F2310188421AD048
:10385000FFE707980021C1F23201884213D02FE020
:103860001098C0680B902CE01098C06804300B9042
:1038700027E01098C06808300B9022E01098C068CC
:103880000C300B901DE01098806818B9FFE70420F9
:103890000B9011E010988068012806D1FFE70820FE
:1038A0000B900E981199086105E008200B900E9876
:1038B00011994861FFE7FFE703E000200B9000E06B
:1038C000FFE70D98FF2803D8FFE71198069003E063
:1038D000119804300690FFE706980A900D98FF288B
:1038E00004D8FFE70F988000059006E00F996FF06D
:1038F0001F0000EB81000590FFE7059809900A98EA
:103900000068099A0F21914088430B999140084320
:103910000A9908601098C079C006002840F1E2803A
:10392000FFE7FFE741F21800C4F20200016841F02E
:1039300001010160006800F0010008900898FFE7AD
:103940000F9820F003000821C4F2010140580C90A8
:103950000F9800F0030081000F2000FA01F10C988D
:1039600088430C90119840F60001C4F2010188428E
:1039700003D1FFE70020049042E0119840F6004197
:10398000C4F20101884203D1FFE70120039034E033
:10399000119841F20001C4F20101884203D1FFE70E
:1039A0000220029026E0119841F20041C4F2010188
:1039B000884203D1FFE70320019018E0119841F6F7
:1039C0000001C4F20101884203D1FFE70420009006
:1039D0000AE0119941F60042C4F201020620914228
:1039E00008BF05200090FFE700980190FFE70198CD
:1039F0000290FFE702980390FFE703980490FFE727
:103A000004980F9901F00301890000FA01F10C9864
:103A100008430C900C980F9921F003010822C4F27E
:103A20000102885010988079C006002809D5FFE768
:103A30000D9A40F20841C4F2010108681043086081
:103A400008E00D9A40F20841C4F201010868904371
:103A50000860FFE7109880798006002809D5FFE705
:103A60000D9A40F20C41C4F201010868104308604D
:103A700008E00D9A40F20C41C4F20101086890433D
:103A80000860FFE7109880798007002809D5FFE7D4
:103A90000D9A40F20441C4F2010108681043086025
:103AA00008E00D9A40F20441C4F201010868904315
:103AB0000860FFE710988079C00748B1FFE70D9ACA
:103AC00040F20041C4F2010108681043086008E0B8
:103AD0000D9A40F20041C4F2010108689043086069
:103AE000FFE7FFE7FFE70F9801300F905DE612B0A8
:103AF0007047000083B00290ADF806100298C068CD
:103B00000090009ABDF8060002EA0001904340EAE6
:103B100001400299086103B07047000082B0019033
:103B2000ADF802108DF801209DF8010028B1FFE7E3
:103B3000BDF802000199086105E0BDF8020000042B
:103B400001990861FFE702B07047000041F2C03000
:103B5000C2F200000068704740F22E00C2F200007E
:103B6000027841F2C031C2F20001086810440860D6
:103B70007047000080B542F20001C4F202010868FB
:103B800040F010000860032000F096F80F2000F0CD
:103B900005F800F03BF8002080BD000080B582B041
:103BA000009040F21800C2F20000006840F22E01BE
:103BB000C2F200010A784FF47A71B1FBF2F1B0FB66
:103BC000F1F001F01BFB20B1FFE701208DF80700A9
:103BD00018E000980F280DD8FFE700994FF0FF304C
:103BE000002200F04FF8009840F23001C2F20001CC
:103BF000086003E001208DF8070003E000208DF845
:103C00000700FFE79DF8070002B080BD83B0FFE723
:103C100041F21800C4F20200016841F001010160A4
:103C2000006800F0010002900298FFE7FFE741F210
:103C30001C00C4F20200016841F08051016000687C
:103C400000F0805001900198FFE7FFE70421C4F2E3
:103C5000010108680090009820F0E0600090009852
:103C600040F00070009000980860FFE703B07047D4
:103C700080B582B08DF807009DF9070005F07CFA49
:103C800002B080BD80B586B08DF817000491039214
:103C90000020029005F088FA02909DF9170001902B
:103CA00002980499039A03F059F90146019805F026
:103CB00083FA06B080BD000080B582B00190019803
:103CC00005F09CFA02B080BD80B588B00790002056
:103CD00006900590049003900290079801380146E1
:103CE00001910F2800F2C2800199DFE801F06CAF6A
:103CF000BF64BFBFBF68BFBFBFBFBFBFBF0841F288
:103D00000400C4F202000068039041F20000C4F213
:103D100002000068C00100284CD5FFE70398C0F3FB
:103D200083414CF63860C0F60000405C04909DF87A
:103D30000E00C007F0B1FFE741F20400C4F2020038
:103D40000068C0F340414CF64860C0F60000405C9B
:103D500006909DF80E00C00758B1FFE7069941F2A2
:103D60000020C0F27A00B0FBF1F0049948430590BE
:103D7000FFE707E0049840F60011C0F23D01484318
:103D80000590FFE741F20400C4F20200006840021F
:103D9000002803D5FFE7059802900AE00598400047
:103DA0004AF6AB21CAF6AA21A0FB011040080290F6
:103DB000FFE7FFE75BE000F097FA029057E000F0C2
:103DC00093FA029053E041F22000C4F2020000682E
:103DD0000390039800F44070B0F5807F0AD1FFE7AC
:103DE0009DF80C008007002804D5FFE74FF4004041
:103DF00002902AE0039800F44070B0F5007F0DD1E6
:103E0000FFE741F22400C4F20200006880070028A6
:103E100004D5FFE749F64040029015E0039800F40E
:103E20004070B0F5407F0DD1FFE741F20000C4F2D1
:103E3000020000688003002804D5FFE74FF2244009
:103E4000029000E0FFE7FFE7FFE710E000F03AFA3A
:103E500041F20401C4F20201096801F44042022166
:103E600001EB5231B0FBF1F0029000E0FFE7029865
:103E700008B080BD80B586B0049000200390029009
:103E800004980078C007002800F0AC80FFE700200D
:103E90008DF8070041F21C00C4F202000068C00067
:103EA000002813D4FFE7FFE741F21C00C4F2020030
:103EB000016841F080510160006800F0805000907E
:103EC0000098FFE701208DF80700FFE747F20000A8
:103ED000C4F200000068C005002822D4FFE747F2C2
:103EE0000001C4F20001086840F480700860FFF728
:103EF0002DFE0390FFE747F20000C4F200000068C7
:103F0000C00500280CD4FFE7FFF720FE0399401AF4
:103F1000652804D3FFE703208DF817008AE0EAE75D
:103F2000FFE741F22000C4F20200006800F4407094
:103F300002900298E0B3FFE702980499496801F4FF
:103F40004071884234D0FFE741F22001C4F20201FF
:103F5000086820F44070029040F24042C4F24222CD
:103F60000120106000201060029808609DF8080091
:103F7000C007E0B1FFE7FFF7E9FD0390FFE741F27B
:103F80002000C4F202000068800700280ED4FFE77A
:103F9000FFF7DCFD0399401A41F28931884204D3CE
:103FA000FFE703208DF8170044E0E8E7FFE7FFE7AD
:103FB00041F22001C4F20201086820F44070049A22
:103FC0005268104308609DF80700012809D1FFE7F7
:103FD00041F21C01C4F20201086820F08050086020
:103FE000FFE7FFE704980078800700280CD5FFE77B
:103FF00041F20401C4F20201086820F44040049A2E
:10400000926810430860FFE704980078C006002813
:104010000CD5FFE741F20401C4F20201086820F464
:104020008000049A526910430860FFE700208DF871
:104030001700FFE79DF8170006B080BD80B584B07B
:1040400002900191029820B9FFE701208DF80F003E
:104050001BE1019842F20001C4F20201096801F07B
:104060000701884216D9FFE742F20000C4F20200BD
:10407000016821F00701019A11430160006800F016
:1040800007000199884204D0FFE701208DF80F0056
:10409000FBE0FFE702980078800700282AD5FFE7B9
:1040A000029800784007002809D5FFE741F2040193
:1040B000C4F20201086840F4E0600860FFE702987B
:1040C00000780007002809D5FFE741F20401C4F297
:1040D0000201086840F460500860FFE741F2040103
:1040E000C4F20201086820F0F000029A92681043BE
:1040F0000860FFE702980078C007002860D0FFE75B
:104100000298406801280ED1FFE741F20000C4F296
:10411000020000688003002804D4FFE701208DF826
:104120000F00B2E021E00298406802280ED1FFE7BC
:1041300041F20000C4F2020000688001002804D4AB
:10414000FFE701208DF80F009FE00DE041F2000035
:10415000C4F2020000688007002804D4FFE70120B1
:104160008DF80F0091E0FFE7FFE741F20401C4F290
:104170000201086820F00300029A526810430860A8
:10418000FFF7E4FC0090FFE741F20400C4F20200F4
:10419000006800F00C0002994968B0EB810F0ED066
:1041A000FFE7FFF7D3FC0099401A41F289318842BA
:1041B00004D3FFE703208DF80F0066E0E4E7FFE794
:1041C000019842F20001C4F20201096801F00701FE
:1041D000884216D2FFE742F20000C4F202000168F2
:1041E00021F00701019A11430160006800F0070007
:1041F0000199884204D0FFE701208DF80F0044E0C8
:10420000FFE702980078400700280CD5FFE741F24D
:104210000401C4F20201086820F4E060029AD26846
:1042200010430860FFE702980078000700280DD5CA
:10423000FFE741F20401C4F20201086820F4605073
:10424000029A126940EAC2000860FFE700F04CF8E9
:1042500041F20401C4F202010968C9B20A094CF62C
:104260002061C0F60001895CC84040F21801C2F22A
:104270000001086040F23000C2F200000068FFF761
:104280008DFC00208DF80F00FFE79DF80F0004B0B3
:1042900080BD000040F21800C2F2000000687047C4
:1042A00080B5FFF7F7FF41F20401C4F2020109688B
:1042B000C1F302224CF63061C0F60001895CC840AF
:1042C00080BD000080B5FFF7E5FF41F20401C4F2B4
:1042D00002010968C1F3C2224CF63061C0F6000148
:1042E000895CC84080BD000086B000200590049025
:1042F00003900290019041F20400C4F202000068B1
:104300000590059800F00C000146009100283FD070
:10431000FFE70098042804D0FFE70098082806D09B
:1043200037E041F20020C0F27A00019037E00598B2
:10433000C0F383414CF64A60C0F60000405C029036
:104340009DF81600C007C0B1FFE741F20400C4F2B7
:1043500002000068C0F340414CF65A60C0F600000D
:10436000405C0490029841F20021C0F27A01484377
:104370000499B0FBF1F0039007E0029840F60011B9
:10438000C0F23D0148430390FFE70398019006E027
:10439000FFE741F20020C0F27A000190FFE70198A8
:1043A00006B0704780B586B00490049820B9FFE746
:1043B00001208DF817002EE304980078C00700282C
:1043C00000F0AE80FFE741F20400C4F20200006892
:1043D00000F00C00042813D0FFE741F20400C4F2FF
:1043E0000200006800F00C0008281BD1FFE741F232
:1043F0000400C4F202000068C003002812D5FFE7E1
:1044000041F20000C4F2020000688003002808D5D1
:10441000FFE70498406820B9FFE701208DF81700F6
:10442000F9E27CE0FFE704984068B0F5803F09D1ED
:10443000FFE741F20001C4F20201086840F4803055
:10444000086032E00498406868B9FFE741F2000173
:10445000C4F20201086820F480300860086820F483
:104460008020086020E004984068B0F5A02F0DD1AE
:10447000FFE741F20001C4F20201086840F4802025
:104480000860086840F4803008600CE041F20001E8
:10449000C4F20201086820F480300860086820F443
:1044A00080200860FFE7FFE7FFE7FFE70498406828
:1044B000D0B1FFE7FFF74AFB0390FFE741F20000AE
:1044C000C4F202000068800300280CD4FFE7FFF765
:1044D0003DFB0399401A652804D3FFE703208DF8BC
:1044E000170098E2EAE719E0FFF730FB0390FFE7D7
:1044F00041F20000C4F202000068800300280CD5DD
:10450000FFE7FFF723FB0399401A652804D3FFE771
:1045100003208DF817007EE2EAE7FFE7FFE7FFE7F9
:10452000049800788007002840F18D80FFE741F271
:104530000400C4F20200006810F00C0F13D0FFE773
:1045400041F20400C4F20200006800F00C000828E8
:1045500029D1FFE741F20400C4F202000068C00361
:10456000002820D4FFE741F20000C4F202000068F6
:104570008007002809D5FFE704980069012804D0C6
:10458000FFE701208DF8170045E241F20001C4F277
:104590000201086820F0F800049A526940EAC2005B
:1045A0000860FFE74EE00498006958B3FFE7002178
:1045B000C4F2422101200860FFF7C8FA0390FFE728
:1045C00041F20000C4F202000068800700280CD409
:1045D000FFE7FFF7BBFA0399401A032804D3FFE76C
:1045E00003208DF8170016E2EAE741F20001C4F259
:1045F0000201086820F0F800049A526940EAC200FB
:1046000008601EE00021C4F2422100200860FFF78C
:104610009DFA0390FFE741F20000C4F20200006837
:10462000800700280CD5FFE7FFF790FA0399401A9E
:10463000032804D3FFE703208DF81700EBE1EAE736
:10464000FFE7FFE7FFE7049800780007002848D558
:10465000FFE70498806918B3FFE740F28041C4F295
:10466000422101200860FFF771FA0390FFE741F251
:104670002400C4F202000068800700280CD4FFE781
:10468000FFF764FA0399401A032804D3FFE70320D5
:104690008DF81700BFE1EAE7012002F085FE1FE078
:1046A00040F28041C4F2422100200860FFF74EFA38
:1046B0000390FFE741F22400C4F202000068800783
:1046C00000280CD5FFE7FFF741FA0399401A0328A9
:1046D00004D3FFE703208DF817009CE1EAE7FFE72A
:1046E000FFE7049800784007002840F1D880FFE7F2
:1046F00000208DF8070041F21C00C4F2020000689F
:10470000C000002813D4FFE7FFE741F21C00C4F209
:104710000200016841F080510160006800F08050A3
:1047200000900098FFE701208DF80700FFE747F2AF
:104730000000C4F200000068C005002822D4FFE792
:1047400047F20001C4F20001086840F4807008607C
:10475000FFF7FCF90390FFE747F20000C4F2000006
:104760000068C00500280CD4FFE7FFF7EFF90399B4
:10477000401A652804D3FFE703208DF817004AE1AB
:10478000EAE7FFE7FFE70498C068012809D1FFE7DF
:1047900041F22001C4F20201086840F00100086003
:1047A00031E00498C06868B9FFE741F22001C4F223
:1047B0000201086820F001000860086820F0040089
:1047C00008601FE00498C06805280DD1FFE741F29A
:1047D0002001C4F20201086840F004000860086883
:1047E00040F0010008600CE041F22001C4F2020137
:1047F000086820F001000860086820F004000860E4
:10480000FFE7FFE7FFE7FFE70498C068E0B1FFE7D5
:10481000FFF79CF90390FFE741F22000C4F2020089
:104820000068800700280ED4FFE7FFF78FF903998F
:10483000401A41F28931884204D3FFE703208DF802
:104840001700E8E0E8E71BE0FFF780F90390FFE7D7
:1048500041F22000C4F202000068800700280ED553
:10486000FFE7FFF773F90399401A41F28931884253
:1048700004D3FFE703208DF81700CCE0E8E7FFE75B
:104880009DF80700012809D1FFE741F21C01C4F29D
:104890000201086820F080500860FFE7FFE70498F5
:1048A000C069002800F0B380FFE741F20400C4F2C1
:1048B0000200006800F00C00082800F08280FFE78A
:1048C0000498C06902285CD1FFE76021C4F242214C
:1048D00000200860FFF73AF90390FFE741F200007B
:1048E000C4F202000068800100280CD5FFE7FFF742
:1048F0002DF90399401A032804D3FFE703208DF80C
:10490000170088E0EAE70498006AB0F5803F0CD110
:10491000FFE741F20401C4F20201086820F400300C
:10492000049A926810430860FFE741F20401C4F260
:104930000201086820F47410049B1A6A5B6A1A4327
:10494000104308606021C4F2422101200860FFF793
:10495000FDF80390FFE741F20000C4F20200006896
:10496000800100280CD4FFE7FFF7F0F80399401A04
:10497000032804D3FFE703208DF817004BE0EAE794
:104980001EE06021C4F2422100200860FFF7DEF83B
:104990000390FFE741F20000C4F2020000688001CA
:1049A00000280CD5FFE7FFF7D1F80399401A032838
:1049B00004D3FFE703208DF817002CE0EAE7FFE7B8
:1049C00024E00498C069012804D1FFE701208DF894
:1049D000170020E041F20400C4F2020000680290D7
:1049E000029800F480300499096A884208D1FFE7F0
:1049F000029800F470100499496A884204D0FFE7D5
:104A000001208DF8170006E0FFE7FFE7FFE7002031
:104A10008DF81700FFE79DF8170006B080BD000075
:104A200081B0009001B0704780B586B005900598C0
:104A300000684068049005980068806803909DF8BD
:104A40000C0000F040010020B0EB911F11D1FFE7F6
:104A50000398C00768B1FFE79DF8100000F040011F
:104A60000020B0EB911F04D0FFE70598016C884748
:104A7000D6E09DF80C0000F002010020B0EB510FD1
:104A80000BD0FFE79DF810100020B0EBD11F04D031
:104A9000FFE70598416C8847C2E09DF80C0000F0E4
:104AA00020010020B0EB511F0AD1FFE79DF80C0058
:104AB00000F040010020B0EB911F00F0B180FFE753
:104AC0009DF8100000F020010020B0EB511F00F015
:104AD000A780FFE79DF80C0000F040010020B0EB3C
:104AE000911F28D0FFE7059890F85100032813D0B4
:104AF000FFE70599486D40F004004865FFE7002096
:104B0000029005980068C068029005980068806867
:104B100002900298FFE70DE0FFE700200190059862
:104B20000068C0680190059800688068019001984D
:104B3000FFE775E0FFE79DF80C0000F02001002082
:104B4000B0EB511F15D0FFE70599486D40F001000B
:104B50004865FFE700200090059800688068009095
:104B600005980168086820F0400008600098FFE799
:104B7000FFE70598406D002851D0FFE705980168D0
:104B8000486820F0E00048600599012081F8510054
:104B90009DF810008007002805D4FFE79DF810005D
:104BA000C007B8B3FFE705980168486820F0030024
:104BB00048600598C06CA0B1FFE70598C16C48F249
:104BC0004910C0F6000048630598C06CFEF716F85F
:104BD00030B1FFE70599486D40F040004865FFE7B8
:104BE000FFE70598806CA0B1FFE70598816C48F25B
:104BF0004910C0F6000048630598806CFDF7FEFF81
:104C000030B1FFE70599486D40F040004865FFE787
:104C1000FFE703E00598FFF703FFFFE7FFE7FFE784
:104C200006B080BD80B584B00290029820B9FFE73D
:104C300001208DF80F006DE00298406A60B9FFE72F
:104C400002984068B0F5827F01D1FFE703E0029946
:104C50000020C861FFE705E0029900200861029981
:104C60004861FFE7029900208862029890F851009D
:104C700040B9FFE70299002081F85000029800F047
:104C80004DF8FFE70299022081F85100029801686F
:104C9000086820F040000860029A0192116850688C
:104CA000D2F808C0D36800F482700CF4044C60445D
:104CB00003F400631844136903F0020318445369B2
:104CC00003F001031844936903F400731844D36993
:104CD00003F038031844136A03F080031843926A00
:104CE00002F40052104308600299488B00F004005F
:104CF0000968486002980168C86920F40060C861CA
:104D0000029900204865029A012182F851108DF81D
:104D10000F00FFE79DF80F0004B080BD80B58EB096
:104D20000D9000200C900B900A9009900D9800684F
:104D300043F60001C4F20001884240F08B80FFE797
:104D4000FFE741F21C00C4F20200016841F4804117
:104D50000160006800F4804008900898FFE7FFE7D2
:104D600041F21800C4F20200016841F0080101603C
:104D7000006800F0080007900798FFE74FF4204014
:104D8000099002200A9003200C9040F60040C4F2E3
:104D90000100039009A90491FEF700FD039804990E
:104DA0004FF480420992002205920A920B92FEF77C
:104DB000F5FC059941F21810C2F200000690442259
:104DC000C4F202020260416081608022C26001611F
:104DD00041618161C161FEF7DFFB18B1FFE7FCF7BC
:104DE00063FAFFE7FFE70D9841F21811C2F20001E4
:104DF000C1640D984862FFE741F25C10C2F2000006
:104E000002905821C4F2020101601021416000218A
:104E100081608022C260016141618161C161FEF7F0
:104E2000BBFB18B1FFE7FCF73FFAFFE7FFE70D9880
:104E300041F25C11C2F2000181640D984862FFE703
:104E40002420019002210022FEF71CFF0198FEF7AA
:104E50000FFFFFE70EB080BD80B58CB0DDF838C025
:104E60000A9009910892ADF81E3001200390FEF7D8
:104E70006DFE04900A9890F851008DF817000A987A
:104E800040680690BDF81E00ADF81C009DF81700A4
:104E9000012812D0FFE70698B0F5827F09D1FFE71D
:104EA0000A98806828B9FFE79DF81700042804D005
:104EB000FFE702208DF82F009BE1099838B1FFE74A
:104EC000089820B1FFE7BDF81E0020B9FFE70120D8
:104ED0008DF82F008DE1FFE70A9890F85000012827
:104EE00004D1FFE702208DF82F0082E10A9901200A
:104EF00081F85000FFE7FFE70A9890F85100042876
:104F000005D0FFE70A99052081F85100FFE70A99CB
:104F10000020486508990A9A9163BDF81E100A9A04
:104F2000D187BDF81E100A9A918709990A9A1163D0
:104F3000BDF81E100A9AD186BDF81E100A9A9186F5
:104F40000A9908640A9948640A980068006800F0A1
:104F50004000402807D0FFE70A980168086840F041
:104F600040000860FFE70A98C068B0F5006F40F0A5
:104F70008180FFE70A98406828B1FFE7BDF81C0070
:104F800001280ED1FFE70A980168006B0088C8600D
:104F90000A99086B023008630A99C88E0138C886DE
:104FA000FFE7FFE70A98C18E0120019039B9FFE7BA
:104FB0000A98C08F002818BF01200190FFE70198D0
:104FC000C007002855D0FFE70A980068806880076E
:104FD000002818D5FFE70A98C08EA0B1FFE7039814
:104FE000012810D1FFE70A980168006B0088C860AB
:104FF0000A99086B023008630A99C88E0138C8867E
:1050000000200390FFE70A9800688068C007A8B1F5
:10501000FFE70A98C08F88B1FFE70A980068C06868
:105020000A99896B08800A99886B023088630A990B
:10503000C88F0138C88701200390FFE7FEF786FD7F
:105040000499401A0E99884212D3FFE70E98013056
:1050500070B1FFE70A99012081F85100FFE70A9932
:10506000002081F85000FFE703208DF82F00C0E0FA
:1050700098E782E00A98406828B1FFE7BDF81C0075
:1050800001280ED1FFE70A980168006B00780873C9
:105090000A99086B013008630A99C88E0138C886DE
:1050A000FFE7FFE70A98C18E0120009039B9FFE7BA
:1050B0000A98C08F002818BF01200090FFE70098D1
:1050C000C007002858D0FFE70A980068806880076A
:1050D000002818D5FFE70A98C08EA0B1FFE7039813
:1050E000012810D1FFE70A980168006B0078087367
:1050F0000A99086B013008630A99C88E0138C8867E
:1051000000200390FFE70A9800688068C007A8B1F4
:10511000FFE70A98C08F88B1FFE70A980068C06867
:105120000A99896B08700A99886B013088630A991B
:10513000C88F0138C88701200390FFE7FEF706FDFE
:105140000499401A0E99884204D3FFE70E98013063
:1051500018B9FFE70E9870B9FFE70A99012081F8A6
:105160005100FFE70A99002081F85000FFE7032073
:105170008DF82F003DE095E7FFE70A980E99049A15
:1051800002F0F2FF68B1FFE70A9920204865FFE7C7
:105190000A99002081F85000FFE701208DF82F00C8
:1051A00027E00A98806870B9FFE7FFE700200290C7
:1051B0000A980068C06802900A98006880680290A7
:1051C0000298FFE7FFE70A99012081F85100FFE705
:1051D0000A99002081F85000FFE70A98406D20B13D
:1051E000FFE701208DF82F0003E000208DF82F004D
:1051F000FFE79DF82F000CB080BD000080B582B0A5
:105200000190019803F016F902B080BD81B00090C2
:1052100001B0704781B0009001B0704784B0029037
:10522000019100200090FFE7029890F83C000128CF
:1052300004D1FFE702208DF80F0044E0029901201D
:1052400081F83C00FFE7FFE7009820F0FF0001999C
:10525000C96808430090009820F44070019989685B
:1052600008430090009820F4806001994968084341
:105270000090009820F400600199096808430090AC
:10528000009820F480500199096908430090009823
:1052900020F400500199496908430090009820F4D7
:1052A00080400199C96908430090009802990968F3
:1052B0004864FFE70299002081F83C00FFE70020E6
:1052C0008DF80F00FFE79DF80F0004B07047000055
:1052D00085B003900291FFE7039890F83C00012805
:1052E00004D1FFE702208DF813006DE0039901203F
:1052F00081F83C00FFE7FFE70399022081F83D00B9
:1053000003980068406801900398006880680090E6
:10531000019820F0700001900298016801980843FC
:10532000019001980399096848600398006842F663
:105330000041C4F2010188422AD0FFE703980068C7
:1053400043F20041C4F20101884221D0FFE70398F3
:105350000068B0F1804F1BD0FFE70398006840F26F
:105360000041C4F20001884212D0FFE703980068B0
:1053700040F60001C4F20001884209D0FFE703981B
:10538000006840F60041C4F2000188420ED1FFE7F8
:10539000009820F08000009002984168009808432F
:1053A00000900098039909688860FFE7039901203D
:1053B00081F83D00FFE70399002081F83C00FFE7FA
:1053C00000208DF81300FFE79DF8130005B070472B
:1053D00080B582B00090009820B9FFE701208DF8D9
:1053E00007003FE0009890F83D0040B9FFE70099C2
:1053F000002081F83C00009800F038F8FFE70099A1
:10540000022081F83D00009951F8040B03F0A6F842
:105410000099012081F84600FFE70099012081F8FA
:105420003E00009981F83F00009981F84000009902
:1054300081F84100FFE7FFE70099012081F8420071
:10544000009981F84300009981F84400009981F89F
:105450004500FFE70099012081F83D0000208DF80C
:105460000700FFE79DF8070002B080BD80B586B059
:1054700005900598006842F60041C4F20101884297
:1054800023D1FFE7FFE741F21800C4F202000168F0
:1054900041F400610160006800F400600490049829
:1054A000FFE718200190002202921146FEF7EAFB66
:1054B0000198FEF7DDFB029A192003900121FEF707
:1054C000E1FB0398FEF7D4FBFFE706B080BD0000C8
:1054D00083B00190019890F83D00012804D0FFE7C7
:1054E00001208DF80B0059E00199022081F83D0060
:1054F00001980168C86840F00100C8600198006820
:1055000042F60041C4F2010188422AD0FFE7019827
:10551000006843F20041C4F20101884221D0FFE754
:1055200001980068B0F1804F1BD0FFE70198006838
:1055300040F20041C4F20001884212D0FFE7019816
:10554000006840F60001C4F20001884209D0FFE77C
:105550000198006840F60041C4F20001884212D16F
:10556000FFE701980068806800F00700009000984D
:10557000062807D0FFE701980168086840F001009D
:105580000860FFE706E001980168086840F0010044
:105590000860FFE700208DF80B00FFE79DF80B0087
:1055A00003B0704780B586B00490039100208DF859
:1055B0000B00FFE7049890F83C00012804D1FFE7B6
:1055C00002208DF81700ABE00499012081F83C001F
:1055D000FFE7FFE70499022081F83D000498006886
:1055E00080680190019820F077000190019820F4E4
:1055F0007F400190019804990968886003980068C9
:105600000090002872D0FFE7009810286ED0FFE7C6
:10561000009820286AD0FFE70098302866D0FFE77E
:105620000098402855D0FFE70098502837D0FFE772
:105630000098602840D0FFE7009870280BD0FFE763
:105640000098B0F5805F05D0FFE70098B0F5005FE7
:1056500016D052E055E004980068039B5A68996898
:10566000DB6803F043F804980068806801900198B3
:1056700040F077000190019804990968886040E043
:1056800004980068039B5A689968DB6803F02EF859
:1056900004980168886840F48040886031E004988C
:1056A0000068039A5168D26803F014FA04980068FD
:1056B000502103F035F824E004980068039A5168FB
:1056C000D26803F02FFA04980068602103F028F8EC
:1056D00017E004980068039A5168D26803F0FAF959
:1056E00004980068402103F01BF80AE00498006861
:1056F0000399096803F014F803E001208DF80B000A
:10570000FFE70499012081F83D00FFE7049900209C
:1057100081F83C00FFE79DF80B008DF81700FFE7CC
:105720009DF8170006B080BD81B0009001B07047B1
:1057300080B584B0039003980068C0680290039815
:105740000068006901909DF804008007002824D5B6
:10575000FFE79DF80800800700281DD5FFE70398A4
:1057600001686FF00200086103990120087703982F
:1057700000688069800720B1FFE70398FFF7D4FF36
:1057800006E0039800F012F9039800F007FAFFE72B
:10579000039900200877FFE7FFE79DF80400400722
:1057A000002825D5FFE79DF80800400700281ED5F2
:1057B000FFE7039801686FF0040008610399022075
:1057C000087703980068806910F4407F04D0FFE7F1
:1057D0000398FFF7A9FF06E0039800F0E7F80398A5
:1057E00000F0DCF9FFE7039900200877FFE7FFE707
:1057F0009DF804000007002824D5FFE79DF8080065
:10580000000700281DD5FFE7039801686FF0080026
:10581000086103990420087703980068C06980072D
:1058200020B1FFE70398FFF77FFF06E0039800F041
:10583000BDF8039800F0B2F9FFE70399002008775C
:10584000FFE7FFE79DF80400C006002825D5FFE725
:105850009DF80800C00600281ED5FFE703980168E0
:105860006FF010000861039908200877039800681A
:10587000C06910F4407F04D0FFE70398FFF754FF9E
:1058800006E0039800F092F8039800F087F9FFE72C
:10589000039900200877FFE7FFE79DF80400C007A1
:1058A00078B1FFE79DF80800C00748B1FFE703980B
:1058B00001686FF001000861039800F0CDFAFFE77E
:1058C000FFE79DF804000006002810D5FFE79DF8CB
:1058D00008000006002809D5FFE7039801686FF06B
:1058E000800008610398FFF791FCFFE7FFE79DF850
:1058F00004004006002810D5FFE79DF80800400688
:10590000002809D5FFE7039801686FF0400008619F
:10591000039800F0A5FAFFE7FFE79DF80400800672
:10592000002810D5FFE79DF808008006002809D55B
:10593000FFE7039801686FF0200008610398FFF704
:1059400069FCFFE7FFE704B080BD000080B586B0CA
:105950000590002004900390029001900598006843
:1059600042F60041C4F2010188421DD1FFE7FFE782
:1059700041F21800C4F20200016841F00401016024
:10598000006800F0040000900098FFE74FF4E0602A
:10599000019002200290049040F60000C4F2010041
:1059A00001A9FDF7FBFEFFE706B080BD81B00090C6
:1059B00001B0704780B586B0049003910292002038
:1059C0008DF80700FFE7049890F83C00012804D107
:1059D000FFE702208DF8170089E00499012081F883
:1059E0003C00FFE7FFE7029800900C2800F270806F
:1059F0000099DFE801F0076D6D6D206D6D6D3A6DFA
:105A00006D6D530004980068039902F09FFE04989E
:105A10000168886940F00800886104980168886915
:105A200020F004008861039802690498016888697D
:105A30001043886150E004980068039902F0FEFE6C
:105A400004980168886940F40060886104980168DE
:105A5000886920F48060886103980269049801686D
:105A6000886940EA0220886136E00498006803995A
:105A700002F060FF04980168C86940F00800C8613E
:105A800004980168C86920F00400C861039802699D
:105A900004980168C8691043C8611DE00498006853
:105AA000039902F0C3FF04980168C86940F40060DC
:105AB000C86104980168C86920F48060C8610398CF
:105AC000026904980168C86940EA0220C86103E0DD
:105AD00001208DF80700FFE7FFE70499002081F817
